{
  "_format": "hh-sol-artifact-1",
  "contractName": "LotteryToken",
  "sourceName": "contracts/lesson_20_lottery/LotteryToken.sol",
  "abi": [
    {
      "inputs": [
        {
          "internalType": "string",
          "name": "name",
          "type": "string"
        },
        {
          "internalType": "string",
          "name": "symbol",
          "type": "string"
        }
      ],
      "stateMutability": "nonpayable",
      "type": "constructor"
    },
    {
      "inputs": [],
      "name": "AccessControlBadConfirmation",
      "type": "error"
    },
    {
      "inputs": [
        {
          "internalType": "address",
          "name": "account",
          "type": "address"
        },
        {
          "internalType": "bytes32",
          "name": "neededRole",
          "type": "bytes32"
        }
      ],
      "name": "AccessControlUnauthorizedAccount",
      "type": "error"
    },
    {
      "inputs": [
        {
          "internalType": "address",
          "name": "spender",
          "type": "address"
        },
        {
          "internalType": "uint256",
          "name": "allowance",
          "type": "uint256"
        },
        {
          "internalType": "uint256",
          "name": "needed",
          "type": "uint256"
        }
      ],
      "name": "ERC20InsufficientAllowance",
      "type": "error"
    },
    {
      "inputs": [
        {
          "internalType": "address",
          "name": "sender",
          "type": "address"
        },
        {
          "internalType": "uint256",
          "name": "balance",
          "type": "uint256"
        },
        {
          "internalType": "uint256",
          "name": "needed",
          "type": "uint256"
        }
      ],
      "name": "ERC20InsufficientBalance",
      "type": "error"
    },
    {
      "inputs": [
        {
          "internalType": "address",
          "name": "approver",
          "type": "address"
        }
      ],
      "name": "ERC20InvalidApprover",
      "type": "error"
    },
    {
      "inputs": [
        {
          "internalType": "address",
          "name": "receiver",
          "type": "address"
        }
      ],
      "name": "ERC20InvalidReceiver",
      "type": "error"
    },
    {
      "inputs": [
        {
          "internalType": "address",
          "name": "sender",
          "type": "address"
        }
      ],
      "name": "ERC20InvalidSender",
      "type": "error"
    },
    {
      "inputs": [
        {
          "internalType": "address",
          "name": "spender",
          "type": "address"
        }
      ],
      "name": "ERC20InvalidSpender",
      "type": "error"
    },
    {
      "anonymous": false,
      "inputs": [
        {
          "indexed": true,
          "internalType": "address",
          "name": "owner",
          "type": "address"
        },
        {
          "indexed": true,
          "internalType": "address",
          "name": "spender",
          "type": "address"
        },
        {
          "indexed": false,
          "internalType": "uint256",
          "name": "value",
          "type": "uint256"
        }
      ],
      "name": "Approval",
      "type": "event"
    },
    {
      "anonymous": false,
      "inputs": [
        {
          "indexed": true,
          "internalType": "bytes32",
          "name": "role",
          "type": "bytes32"
        },
        {
          "indexed": true,
          "internalType": "bytes32",
          "name": "previousAdminRole",
          "type": "bytes32"
        },
        {
          "indexed": true,
          "internalType": "bytes32",
          "name": "newAdminRole",
          "type": "bytes32"
        }
      ],
      "name": "RoleAdminChanged",
      "type": "event"
    },
    {
      "anonymous": false,
      "inputs": [
        {
          "indexed": true,
          "internalType": "bytes32",
          "name": "role",
          "type": "bytes32"
        },
        {
          "indexed": true,
          "internalType": "address",
          "name": "account",
          "type": "address"
        },
        {
          "indexed": true,
          "internalType": "address",
          "name": "sender",
          "type": "address"
        }
      ],
      "name": "RoleGranted",
      "type": "event"
    },
    {
      "anonymous": false,
      "inputs": [
        {
          "indexed": true,
          "internalType": "bytes32",
          "name": "role",
          "type": "bytes32"
        },
        {
          "indexed": true,
          "internalType": "address",
          "name": "account",
          "type": "address"
        },
        {
          "indexed": true,
          "internalType": "address",
          "name": "sender",
          "type": "address"
        }
      ],
      "name": "RoleRevoked",
      "type": "event"
    },
    {
      "anonymous": false,
      "inputs": [
        {
          "indexed": true,
          "internalType": "address",
          "name": "from",
          "type": "address"
        },
        {
          "indexed": true,
          "internalType": "address",
          "name": "to",
          "type": "address"
        },
        {
          "indexed": false,
          "internalType": "uint256",
          "name": "value",
          "type": "uint256"
        }
      ],
      "name": "Transfer",
      "type": "event"
    },
    {
      "inputs": [],
      "name": "DEFAULT_ADMIN_ROLE",
      "outputs": [
        {
          "internalType": "bytes32",
          "name": "",
          "type": "bytes32"
        }
      ],
      "stateMutability": "view",
      "type": "function"
    },
    {
      "inputs": [],
      "name": "MINTER_ROLE",
      "outputs": [
        {
          "internalType": "bytes32",
          "name": "",
          "type": "bytes32"
        }
      ],
      "stateMutability": "view",
      "type": "function"
    },
    {
      "inputs": [
        {
          "internalType": "address",
          "name": "owner",
          "type": "address"
        },
        {
          "internalType": "address",
          "name": "spender",
          "type": "address"
        }
      ],
      "name": "allowance",
      "outputs": [
        {
          "internalType": "uint256",
          "name": "",
          "type": "uint256"
        }
      ],
      "stateMutability": "view",
      "type": "function"
    },
    {
      "inputs": [
        {
          "internalType": "address",
          "name": "spender",
          "type": "address"
        },
        {
          "internalType": "uint256",
          "name": "value",
          "type": "uint256"
        }
      ],
      "name": "approve",
      "outputs": [
        {
          "internalType": "bool",
          "name": "",
          "type": "bool"
        }
      ],
      "stateMutability": "nonpayable",
      "type": "function"
    },
    {
      "inputs": [
        {
          "internalType": "address",
          "name": "account",
          "type": "address"
        }
      ],
      "name": "balanceOf",
      "outputs": [
        {
          "internalType": "uint256",
          "name": "",
          "type": "uint256"
        }
      ],
      "stateMutability": "view",
      "type": "function"
    },
    {
      "inputs": [
        {
          "internalType": "uint256",
          "name": "value",
          "type": "uint256"
        }
      ],
      "name": "burn",
      "outputs": [],
      "stateMutability": "nonpayable",
      "type": "function"
    },
    {
      "inputs": [
        {
          "internalType": "address",
          "name": "account",
          "type": "address"
        },
        {
          "internalType": "uint256",
          "name": "value",
          "type": "uint256"
        }
      ],
      "name": "burnFrom",
      "outputs": [],
      "stateMutability": "nonpayable",
      "type": "function"
    },
    {
      "inputs": [],
      "name": "decimals",
      "outputs": [
        {
          "internalType": "uint8",
          "name": "",
          "type": "uint8"
        }
      ],
      "stateMutability": "view",
      "type": "function"
    },
    {
      "inputs": [
        {
          "internalType": "bytes32",
          "name": "role",
          "type": "bytes32"
        }
      ],
      "name": "getRoleAdmin",
      "outputs": [
        {
          "internalType": "bytes32",
          "name": "",
          "type": "bytes32"
        }
      ],
      "stateMutability": "view",
      "type": "function"
    },
    {
      "inputs": [
        {
          "internalType": "bytes32",
          "name": "role",
          "type": "bytes32"
        },
        {
          "internalType": "address",
          "name": "account",
          "type": "address"
        }
      ],
      "name": "grantRole",
      "outputs": [],
      "stateMutability": "nonpayable",
      "type": "function"
    },
    {
      "inputs": [
        {
          "internalType": "bytes32",
          "name": "role",
          "type": "bytes32"
        },
        {
          "internalType": "address",
          "name": "account",
          "type": "address"
        }
      ],
      "name": "hasRole",
      "outputs": [
        {
          "internalType": "bool",
          "name": "",
          "type": "bool"
        }
      ],
      "stateMutability": "view",
      "type": "function"
    },
    {
      "inputs": [
        {
          "internalType": "address",
          "name": "to",
          "type": "address"
        },
        {
          "internalType": "uint256",
          "name": "amount",
          "type": "uint256"
        }
      ],
      "name": "mint",
      "outputs": [],
      "stateMutability": "nonpayable",
      "type": "function"
    },
    {
      "inputs": [],
      "name": "name",
      "outputs": [
        {
          "internalType": "string",
          "name": "",
          "type": "string"
        }
      ],
      "stateMutability": "view",
      "type": "function"
    },
    {
      "inputs": [
        {
          "internalType": "bytes32",
          "name": "role",
          "type": "bytes32"
        },
        {
          "internalType": "address",
          "name": "callerConfirmation",
          "type": "address"
        }
      ],
      "name": "renounceRole",
      "outputs": [],
      "stateMutability": "nonpayable",
      "type": "function"
    },
    {
      "inputs": [
        {
          "internalType": "bytes32",
          "name": "role",
          "type": "bytes32"
        },
        {
          "internalType": "address",
          "name": "account",
          "type": "address"
        }
      ],
      "name": "revokeRole",
      "outputs": [],
      "stateMutability": "nonpayable",
      "type": "function"
    },
    {
      "inputs": [
        {
          "internalType": "bytes4",
          "name": "interfaceId",
          "type": "bytes4"
        }
      ],
      "name": "supportsInterface",
      "outputs": [
        {
          "internalType": "bool",
          "name": "",
          "type": "bool"
        }
      ],
      "stateMutability": "view",
      "type": "function"
    },
    {
      "inputs": [],
      "name": "symbol",
      "outputs": [
        {
          "internalType": "string",
          "name": "",
          "type": "string"
        }
      ],
      "stateMutability": "view",
      "type": "function"
    },
    {
      "inputs": [],
      "name": "totalSupply",
      "outputs": [
        {
          "internalType": "uint256",
          "name": "",
          "type": "uint256"
        }
      ],
      "stateMutability": "view",
      "type": "function"
    },
    {
      "inputs": [
        {
          "internalType": "address",
          "name": "to",
          "type": "address"
        },
        {
          "internalType": "uint256",
          "name": "value",
          "type": "uint256"
        }
      ],
      "name": "transfer",
      "outputs": [
        {
          "internalType": "bool",
          "name": "",
          "type": "bool"
        }
      ],
      "stateMutability": "nonpayable",
      "type": "function"
    },
    {
      "inputs": [
        {
          "internalType": "address",
          "name": "from",
          "type": "address"
        },
        {
          "internalType": "address",
          "name": "to",
          "type": "address"
        },
        {
          "internalType": "uint256",
          "name": "value",
          "type": "uint256"
        }
      ],
      "name": "transferFrom",
      "outputs": [
        {
          "internalType": "bool",
          "name": "",
          "type": "bool"
        }
      ],
      "stateMutability": "nonpayable",
      "type": "function"
    }
  ],
  "bytecode": "0x60806040523480156200001157600080fd5b5060405162000fdd38038062000fdd833981016040819052620000349162000216565b8181600362000044838262000311565b50600462000053828262000311565b5062000065915060009050336200009b565b50620000927f9f2df0fed2c77648de5860a4cc508cd0818c85b8b8a1ab4ceeef8d981c8956a6336200009b565b505050620003dd565b60008281526005602090815260408083206001600160a01b038516845290915281205460ff16620001445760008381526005602090815260408083206001600160a01b03861684529091529020805460ff19166001179055620000fb3390565b6001600160a01b0316826001600160a01b0316847f2f8788117e7eff1d82e926ec794901d17c78024a50270940304540a733656f0d60405160405180910390a450600162000148565b5060005b92915050565b634e487b7160e01b600052604160045260246000fd5b600082601f8301126200017657600080fd5b81516001600160401b03808211156200019357620001936200014e565b604051601f8301601f19908116603f01168101908282118183101715620001be57620001be6200014e565b8160405283815260209250866020858801011115620001dc57600080fd5b600091505b83821015620002005785820183015181830184015290820190620001e1565b6000602085830101528094505050505092915050565b600080604083850312156200022a57600080fd5b82516001600160401b03808211156200024257600080fd5b620002508683870162000164565b935060208501519150808211156200026757600080fd5b50620002768582860162000164565b9150509250929050565b600181811c908216806200029557607f821691505b602082108103620002b657634e487b7160e01b600052602260045260246000fd5b50919050565b601f8211156200030c576000816000526020600020601f850160051c81016020861015620002e75750805b601f850160051c820191505b818110156200030857828155600101620002f3565b5050505b505050565b81516001600160401b038111156200032d576200032d6200014e565b62000345816200033e845462000280565b84620002bc565b602080601f8311600181146200037d5760008415620003645750858301515b600019600386901b1c1916600185901b17855562000308565b600085815260208120601f198616915b82811015620003ae578886015182559484019460019091019084016200038d565b5085821015620003cd5787850151600019600388901b60f8161c191681555b5050505050600190811b01905550565b610bf080620003ed6000396000f3fe608060405234801561001057600080fd5b506004361061012c5760003560e01c806342966c68116100ad578063a217fddf11610071578063a217fddf1461027d578063a9059cbb14610285578063d539139314610298578063d547741f146102bf578063dd62ed3e146102d257600080fd5b806342966c681461021357806370a082311461022657806379cc67901461024f57806391d148541461026257806395d89b411461027557600080fd5b8063248a9ca3116100f4578063248a9ca3146101a65780632f2ff15d146101c9578063313ce567146101de57806336568abe146101ed57806340c10f191461020057600080fd5b806301ffc9a71461013157806306fdde0314610159578063095ea7b31461016e57806318160ddd1461018157806323b872dd14610193575b600080fd5b61014461013f3660046109d3565b61030b565b60405190151581526020015b60405180910390f35b610161610342565b6040516101509190610a04565b61014461017c366004610a6f565b6103d4565b6002545b604051908152602001610150565b6101446101a1366004610a99565b6103ec565b6101856101b4366004610ad5565b60009081526005602052604090206001015490565b6101dc6101d7366004610aee565b610410565b005b60405160128152602001610150565b6101dc6101fb366004610aee565b61043b565b6101dc61020e366004610a6f565b610473565b6101dc610221366004610ad5565b6104a7565b610185610234366004610b1a565b6001600160a01b031660009081526020819052604090205490565b6101dc61025d366004610a6f565b6104b4565b610144610270366004610aee565b6104cd565b6101616104f8565b610185600081565b610144610293366004610a6f565b610507565b6101857f9f2df0fed2c77648de5860a4cc508cd0818c85b8b8a1ab4ceeef8d981c8956a681565b6101dc6102cd366004610aee565b610515565b6101856102e0366004610b35565b6001600160a01b03918216600090815260016020908152604080832093909416825291909152205490565b60006001600160e01b03198216637965db0b60e01b148061033c57506301ffc9a760e01b6001600160e01b03198316145b92915050565b60606003805461035190610b5f565b80601f016020809104026020016040519081016040528092919081815260200182805461037d90610b5f565b80156103ca5780601f1061039f576101008083540402835291602001916103ca565b820191906000526020600020905b8154815290600101906020018083116103ad57829003601f168201915b5050505050905090565b6000336103e281858561053a565b5060019392505050565b6000336103fa858285610547565b6104058585856105c5565b506001949350505050565b60008281526005602052604090206001015461042b81610624565b610435838361062e565b50505050565b6001600160a01b03811633146104645760405163334bd91960e11b815260040160405180910390fd5b61046e82826106c2565b505050565b7f9f2df0fed2c77648de5860a4cc508cd0818c85b8b8a1ab4ceeef8d981c8956a661049d81610624565b61046e838361072f565b6104b13382610765565b50565b6104bf823383610547565b6104c98282610765565b5050565b60009182526005602090815260408084206001600160a01b0393909316845291905290205460ff1690565b60606004805461035190610b5f565b6000336103e28185856105c5565b60008281526005602052604090206001015461053081610624565b61043583836106c2565b61046e838383600161079b565b6001600160a01b0383811660009081526001602090815260408083209386168352929052205460001981101561043557818110156105b657604051637dc7a0d960e11b81526001600160a01b038416600482015260248101829052604481018390526064015b60405180910390fd5b6104358484848403600061079b565b6001600160a01b0383166105ef57604051634b637e8f60e11b8152600060048201526024016105ad565b6001600160a01b0382166106195760405163ec442f0560e01b8152600060048201526024016105ad565b61046e838383610870565b6104b1813361099a565b600061063a83836104cd565b6106ba5760008381526005602090815260408083206001600160a01b03861684529091529020805460ff191660011790556106723390565b6001600160a01b0316826001600160a01b0316847f2f8788117e7eff1d82e926ec794901d17c78024a50270940304540a733656f0d60405160405180910390a450600161033c565b50600061033c565b60006106ce83836104cd565b156106ba5760008381526005602090815260408083206001600160a01b0386168085529252808320805460ff1916905551339286917ff6391f5c32d9c69d2a47ea670b442974b53935d1edc7fd64eb21e047a839171b9190a450600161033c565b6001600160a01b0382166107595760405163ec442f0560e01b8152600060048201526024016105ad565b6104c960008383610870565b6001600160a01b03821661078f57604051634b637e8f60e11b8152600060048201526024016105ad565b6104c982600083610870565b6001600160a01b0384166107c55760405163e602df0560e01b8152600060048201526024016105ad565b6001600160a01b0383166107ef57604051634a1406b160e11b8152600060048201526024016105ad565b6001600160a01b038085166000908152600160209081526040808320938716835292905220829055801561043557826001600160a01b0316846001600160a01b03167f8c5be1e5ebec7d5bd14f71427d1e84f3dd0314c0f7b2291e5b200ac8c7c3b9258460405161086291815260200190565b60405180910390a350505050565b6001600160a01b03831661089b5780600260008282546108909190610b99565b9091555061090d9050565b6001600160a01b038316600090815260208190526040902054818110156108ee5760405163391434e360e21b81526001600160a01b038516600482015260248101829052604481018390526064016105ad565b6001600160a01b03841660009081526020819052604090209082900390555b6001600160a01b03821661092957600280548290039055610948565b6001600160a01b03821660009081526020819052604090208054820190555b816001600160a01b0316836001600160a01b03167fddf252ad1be2c89b69c2b068fc378daa952ba7f163c4a11628f55a4df523b3ef8360405161098d91815260200190565b60405180910390a3505050565b6109a482826104cd565b6104c95760405163e2517d3f60e01b81526001600160a01b0382166004820152602481018390526044016105ad565b6000602082840312156109e557600080fd5b81356001600160e01b0319811681146109fd57600080fd5b9392505050565b60006020808352835180602085015260005b81811015610a3257858101830151858201604001528201610a16565b506000604082860101526040601f19601f8301168501019250505092915050565b80356001600160a01b0381168114610a6a57600080fd5b919050565b60008060408385031215610a8257600080fd5b610a8b83610a53565b946020939093013593505050565b600080600060608486031215610aae57600080fd5b610ab784610a53565b9250610ac560208501610a53565b9150604084013590509250925092565b600060208284031215610ae757600080fd5b5035919050565b60008060408385031215610b0157600080fd5b82359150610b1160208401610a53565b90509250929050565b600060208284031215610b2c57600080fd5b6109fd82610a53565b60008060408385031215610b4857600080fd5b610b5183610a53565b9150610b1160208401610a53565b600181811c90821680610b7357607f821691505b602082108103610b9357634e487b7160e01b600052602260045260246000fd5b50919050565b8082018082111561033c57634e487b7160e01b600052601160045260246000fdfea2646970667358221220de48f2f79a64d63e9be5bbf348c1ec358c26deed3e932d943d59a6271ef3f6b964736f6c63430008180033",
  "linkReferences": {},
  "deployedLinkReferences": {}
}