{
  "_format": "hh-sol-artifact-1",
  "contractName": "MyToken",
  "sourceName": "contracts/MyToken.sol",
  "abi": [
    {
      "inputs": [],
      "stateMutability": "nonpayable",
      "type": "constructor"
    },
    {
      "inputs": [],
      "name": "CheckpointUnorderedInsertion",
      "type": "error"
    },
    {
      "inputs": [],
      "name": "ECDSAInvalidSignature",
      "type": "error"
    },
    {
      "inputs": [
        {
          "internalType": "uint256",
          "name": "length",
          "type": "uint256"
        }
      ],
      "name": "ECDSAInvalidSignatureLength",
      "type": "error"
    },
    {
      "inputs": [
        {
          "internalType": "bytes32",
          "name": "s",
          "type": "bytes32"
        }
      ],
      "name": "ECDSAInvalidSignatureS",
      "type": "error"
    },
    {
      "inputs": [
        {
          "internalType": "uint256",
          "name": "increasedSupply",
          "type": "uint256"
        },
        {
          "internalType": "uint256",
          "name": "cap",
          "type": "uint256"
        }
      ],
      "name": "ERC20ExceededSafeSupply",
      "type": "error"
    },
    {
      "inputs": [
        {
          "internalType": "address",
          "name": "spender",
          "type": "address"
        },
        {
          "internalType": "uint256",
          "name": "allowance",
          "type": "uint256"
        },
        {
          "internalType": "uint256",
          "name": "needed",
          "type": "uint256"
        }
      ],
      "name": "ERC20InsufficientAllowance",
      "type": "error"
    },
    {
      "inputs": [
        {
          "internalType": "address",
          "name": "sender",
          "type": "address"
        },
        {
          "internalType": "uint256",
          "name": "balance",
          "type": "uint256"
        },
        {
          "internalType": "uint256",
          "name": "needed",
          "type": "uint256"
        }
      ],
      "name": "ERC20InsufficientBalance",
      "type": "error"
    },
    {
      "inputs": [
        {
          "internalType": "address",
          "name": "approver",
          "type": "address"
        }
      ],
      "name": "ERC20InvalidApprover",
      "type": "error"
    },
    {
      "inputs": [
        {
          "internalType": "address",
          "name": "receiver",
          "type": "address"
        }
      ],
      "name": "ERC20InvalidReceiver",
      "type": "error"
    },
    {
      "inputs": [
        {
          "internalType": "address",
          "name": "sender",
          "type": "address"
        }
      ],
      "name": "ERC20InvalidSender",
      "type": "error"
    },
    {
      "inputs": [
        {
          "internalType": "address",
          "name": "spender",
          "type": "address"
        }
      ],
      "name": "ERC20InvalidSpender",
      "type": "error"
    },
    {
      "inputs": [
        {
          "internalType": "uint256",
          "name": "deadline",
          "type": "uint256"
        }
      ],
      "name": "ERC2612ExpiredSignature",
      "type": "error"
    },
    {
      "inputs": [
        {
          "internalType": "address",
          "name": "signer",
          "type": "address"
        },
        {
          "internalType": "address",
          "name": "owner",
          "type": "address"
        }
      ],
      "name": "ERC2612InvalidSigner",
      "type": "error"
    },
    {
      "inputs": [
        {
          "internalType": "uint256",
          "name": "timepoint",
          "type": "uint256"
        },
        {
          "internalType": "uint48",
          "name": "clock",
          "type": "uint48"
        }
      ],
      "name": "ERC5805FutureLookup",
      "type": "error"
    },
    {
      "inputs": [],
      "name": "ERC6372InconsistentClock",
      "type": "error"
    },
    {
      "inputs": [
        {
          "internalType": "address",
          "name": "account",
          "type": "address"
        },
        {
          "internalType": "uint256",
          "name": "currentNonce",
          "type": "uint256"
        }
      ],
      "name": "InvalidAccountNonce",
      "type": "error"
    },
    {
      "inputs": [],
      "name": "InvalidShortString",
      "type": "error"
    },
    {
      "inputs": [
        {
          "internalType": "uint8",
          "name": "bits",
          "type": "uint8"
        },
        {
          "internalType": "uint256",
          "name": "value",
          "type": "uint256"
        }
      ],
      "name": "SafeCastOverflowedUintDowncast",
      "type": "error"
    },
    {
      "inputs": [
        {
          "internalType": "string",
          "name": "str",
          "type": "string"
        }
      ],
      "name": "StringTooLong",
      "type": "error"
    },
    {
      "inputs": [
        {
          "internalType": "uint256",
          "name": "expiry",
          "type": "uint256"
        }
      ],
      "name": "VotesExpiredSignature",
      "type": "error"
    },
    {
      "anonymous": false,
      "inputs": [
        {
          "indexed": true,
          "internalType": "address",
          "name": "owner",
          "type": "address"
        },
        {
          "indexed": true,
          "internalType": "address",
          "name": "spender",
          "type": "address"
        },
        {
          "indexed": false,
          "internalType": "uint256",
          "name": "value",
          "type": "uint256"
        }
      ],
      "name": "Approval",
      "type": "event"
    },
    {
      "anonymous": false,
      "inputs": [
        {
          "indexed": true,
          "internalType": "address",
          "name": "delegator",
          "type": "address"
        },
        {
          "indexed": true,
          "internalType": "address",
          "name": "fromDelegate",
          "type": "address"
        },
        {
          "indexed": true,
          "internalType": "address",
          "name": "toDelegate",
          "type": "address"
        }
      ],
      "name": "DelegateChanged",
      "type": "event"
    },
    {
      "anonymous": false,
      "inputs": [
        {
          "indexed": true,
          "internalType": "address",
          "name": "delegate",
          "type": "address"
        },
        {
          "indexed": false,
          "internalType": "uint256",
          "name": "previousVotes",
          "type": "uint256"
        },
        {
          "indexed": false,
          "internalType": "uint256",
          "name": "newVotes",
          "type": "uint256"
        }
      ],
      "name": "DelegateVotesChanged",
      "type": "event"
    },
    {
      "anonymous": false,
      "inputs": [],
      "name": "EIP712DomainChanged",
      "type": "event"
    },
    {
      "anonymous": false,
      "inputs": [
        {
          "indexed": true,
          "internalType": "address",
          "name": "from",
          "type": "address"
        },
        {
          "indexed": true,
          "internalType": "address",
          "name": "to",
          "type": "address"
        },
        {
          "indexed": false,
          "internalType": "uint256",
          "name": "value",
          "type": "uint256"
        }
      ],
      "name": "Transfer",
      "type": "event"
    },
    {
      "inputs": [],
      "name": "CLOCK_MODE",
      "outputs": [
        {
          "internalType": "string",
          "name": "",
          "type": "string"
        }
      ],
      "stateMutability": "view",
      "type": "function"
    },
    {
      "inputs": [],
      "name": "DOMAIN_SEPARATOR",
      "outputs": [
        {
          "internalType": "bytes32",
          "name": "",
          "type": "bytes32"
        }
      ],
      "stateMutability": "view",
      "type": "function"
    },
    {
      "inputs": [
        {
          "internalType": "address",
          "name": "owner",
          "type": "address"
        },
        {
          "internalType": "address",
          "name": "spender",
          "type": "address"
        }
      ],
      "name": "allowance",
      "outputs": [
        {
          "internalType": "uint256",
          "name": "",
          "type": "uint256"
        }
      ],
      "stateMutability": "view",
      "type": "function"
    },
    {
      "inputs": [
        {
          "internalType": "address",
          "name": "spender",
          "type": "address"
        },
        {
          "internalType": "uint256",
          "name": "value",
          "type": "uint256"
        }
      ],
      "name": "approve",
      "outputs": [
        {
          "internalType": "bool",
          "name": "",
          "type": "bool"
        }
      ],
      "stateMutability": "nonpayable",
      "type": "function"
    },
    {
      "inputs": [
        {
          "internalType": "address",
          "name": "account",
          "type": "address"
        }
      ],
      "name": "balanceOf",
      "outputs": [
        {
          "internalType": "uint256",
          "name": "",
          "type": "uint256"
        }
      ],
      "stateMutability": "view",
      "type": "function"
    },
    {
      "inputs": [
        {
          "internalType": "address",
          "name": "from",
          "type": "address"
        },
        {
          "internalType": "uint256",
          "name": "amount",
          "type": "uint256"
        }
      ],
      "name": "burn",
      "outputs": [],
      "stateMutability": "nonpayable",
      "type": "function"
    },
    {
      "inputs": [
        {
          "internalType": "address",
          "name": "account",
          "type": "address"
        },
        {
          "internalType": "uint32",
          "name": "pos",
          "type": "uint32"
        }
      ],
      "name": "checkpoints",
      "outputs": [
        {
          "components": [
            {
              "internalType": "uint48",
              "name": "_key",
              "type": "uint48"
            },
            {
              "internalType": "uint208",
              "name": "_value",
              "type": "uint208"
            }
          ],
          "internalType": "struct Checkpoints.Checkpoint208",
          "name": "",
          "type": "tuple"
        }
      ],
      "stateMutability": "view",
      "type": "function"
    },
    {
      "inputs": [],
      "name": "clock",
      "outputs": [
        {
          "internalType": "uint48",
          "name": "",
          "type": "uint48"
        }
      ],
      "stateMutability": "view",
      "type": "function"
    },
    {
      "inputs": [],
      "name": "decimals",
      "outputs": [
        {
          "internalType": "uint8",
          "name": "",
          "type": "uint8"
        }
      ],
      "stateMutability": "view",
      "type": "function"
    },
    {
      "inputs": [
        {
          "internalType": "address",
          "name": "delegatee",
          "type": "address"
        }
      ],
      "name": "delegate",
      "outputs": [],
      "stateMutability": "nonpayable",
      "type": "function"
    },
    {
      "inputs": [
        {
          "internalType": "address",
          "name": "delegatee",
          "type": "address"
        },
        {
          "internalType": "uint256",
          "name": "nonce",
          "type": "uint256"
        },
        {
          "internalType": "uint256",
          "name": "expiry",
          "type": "uint256"
        },
        {
          "internalType": "uint8",
          "name": "v",
          "type": "uint8"
        },
        {
          "internalType": "bytes32",
          "name": "r",
          "type": "bytes32"
        },
        {
          "internalType": "bytes32",
          "name": "s",
          "type": "bytes32"
        }
      ],
      "name": "delegateBySig",
      "outputs": [],
      "stateMutability": "nonpayable",
      "type": "function"
    },
    {
      "inputs": [
        {
          "internalType": "address",
          "name": "account",
          "type": "address"
        }
      ],
      "name": "delegates",
      "outputs": [
        {
          "internalType": "address",
          "name": "",
          "type": "address"
        }
      ],
      "stateMutability": "view",
      "type": "function"
    },
    {
      "inputs": [],
      "name": "eip712Domain",
      "outputs": [
        {
          "internalType": "bytes1",
          "name": "fields",
          "type": "bytes1"
        },
        {
          "internalType": "string",
          "name": "name",
          "type": "string"
        },
        {
          "internalType": "string",
          "name": "version",
          "type": "string"
        },
        {
          "internalType": "uint256",
          "name": "chainId",
          "type": "uint256"
        },
        {
          "internalType": "address",
          "name": "verifyingContract",
          "type": "address"
        },
        {
          "internalType": "bytes32",
          "name": "salt",
          "type": "bytes32"
        },
        {
          "internalType": "uint256[]",
          "name": "extensions",
          "type": "uint256[]"
        }
      ],
      "stateMutability": "view",
      "type": "function"
    },
    {
      "inputs": [
        {
          "internalType": "uint256",
          "name": "timepoint",
          "type": "uint256"
        }
      ],
      "name": "getPastTotalSupply",
      "outputs": [
        {
          "internalType": "uint256",
          "name": "",
          "type": "uint256"
        }
      ],
      "stateMutability": "view",
      "type": "function"
    },
    {
      "inputs": [
        {
          "internalType": "address",
          "name": "account",
          "type": "address"
        },
        {
          "internalType": "uint256",
          "name": "timepoint",
          "type": "uint256"
        }
      ],
      "name": "getPastVotes",
      "outputs": [
        {
          "internalType": "uint256",
          "name": "",
          "type": "uint256"
        }
      ],
      "stateMutability": "view",
      "type": "function"
    },
    {
      "inputs": [
        {
          "internalType": "address",
          "name": "account",
          "type": "address"
        }
      ],
      "name": "getVotes",
      "outputs": [
        {
          "internalType": "uint256",
          "name": "",
          "type": "uint256"
        }
      ],
      "stateMutability": "view",
      "type": "function"
    },
    {
      "inputs": [],
      "name": "maxSupply",
      "outputs": [
        {
          "internalType": "uint256",
          "name": "",
          "type": "uint256"
        }
      ],
      "stateMutability": "view",
      "type": "function"
    },
    {
      "inputs": [
        {
          "internalType": "address",
          "name": "to",
          "type": "address"
        },
        {
          "internalType": "uint256",
          "name": "amount",
          "type": "uint256"
        }
      ],
      "name": "mint",
      "outputs": [],
      "stateMutability": "nonpayable",
      "type": "function"
    },
    {
      "inputs": [],
      "name": "name",
      "outputs": [
        {
          "internalType": "string",
          "name": "",
          "type": "string"
        }
      ],
      "stateMutability": "view",
      "type": "function"
    },
    {
      "inputs": [
        {
          "internalType": "address",
          "name": "owner",
          "type": "address"
        }
      ],
      "name": "nonces",
      "outputs": [
        {
          "internalType": "uint256",
          "name": "",
          "type": "uint256"
        }
      ],
      "stateMutability": "view",
      "type": "function"
    },
    {
      "inputs": [
        {
          "internalType": "address",
          "name": "account",
          "type": "address"
        }
      ],
      "name": "numCheckpoints",
      "outputs": [
        {
          "internalType": "uint32",
          "name": "",
          "type": "uint32"
        }
      ],
      "stateMutability": "view",
      "type": "function"
    },
    {
      "inputs": [
        {
          "internalType": "address",
          "name": "owner",
          "type": "address"
        },
        {
          "internalType": "address",
          "name": "spender",
          "type": "address"
        },
        {
          "internalType": "uint256",
          "name": "value",
          "type": "uint256"
        },
        {
          "internalType": "uint256",
          "name": "deadline",
          "type": "uint256"
        },
        {
          "internalType": "uint8",
          "name": "v",
          "type": "uint8"
        },
        {
          "internalType": "bytes32",
          "name": "r",
          "type": "bytes32"
        },
        {
          "internalType": "bytes32",
          "name": "s",
          "type": "bytes32"
        }
      ],
      "name": "permit",
      "outputs": [],
      "stateMutability": "nonpayable",
      "type": "function"
    },
    {
      "inputs": [],
      "name": "symbol",
      "outputs": [
        {
          "internalType": "string",
          "name": "",
          "type": "string"
        }
      ],
      "stateMutability": "view",
      "type": "function"
    },
    {
      "inputs": [],
      "name": "totalSupply",
      "outputs": [
        {
          "internalType": "uint256",
          "name": "",
          "type": "uint256"
        }
      ],
      "stateMutability": "view",
      "type": "function"
    },
    {
      "inputs": [
        {
          "internalType": "address",
          "name": "to",
          "type": "address"
        },
        {
          "internalType": "uint256",
          "name": "value",
          "type": "uint256"
        }
      ],
      "name": "transfer",
      "outputs": [
        {
          "internalType": "bool",
          "name": "",
          "type": "bool"
        }
      ],
      "stateMutability": "nonpayable",
      "type": "function"
    },
    {
      "inputs": [
        {
          "internalType": "address",
          "name": "from",
          "type": "address"
        },
        {
          "internalType": "address",
          "name": "to",
          "type": "address"
        },
        {
          "internalType": "uint256",
          "name": "value",
          "type": "uint256"
        }
      ],
      "name": "transferFrom",
      "outputs": [
        {
          "internalType": "bool",
          "name": "",
          "type": "bool"
        }
      ],
      "stateMutability": "nonpayable",
      "type": "function"
    }
  ],
  "bytecode": "0x61016060405269d3c21bcecceda1000000600b553480156200002057600080fd5b506040518060400160405280600781526020016626bcaa37b5b2b760c91b81525080604051806040016040528060018152602001603160f81b8152506040518060400160405280600781526020016626bcaa37b5b2b760c91b815250604051806040016040528060038152602001624d544b60e81b8152508160039081620000a99190620002a3565b506004620000b88282620002a3565b50620000ca9150839050600562000179565b61012052620000db81600662000179565b61014052815160208084019190912060e052815190820120610100524660a0526200016960e05161010051604080517f8b73c3c69bb8fe3d512ecc4cf759cc79239f7b179b0ffacaa9a75d522b39400f60208201529081019290925260608201524660808201523060a082015260009060c00160405160208183030381529060405280519060200120905090565b60805250503060c05250620003e4565b600060208351101562000199576200019183620001b2565b9050620001ac565b81620001a68482620002a3565b5060ff90505b92915050565b600080829050601f81511115620001e9578260405163305a27a960e01b8152600401620001e091906200036f565b60405180910390fd5b8051620001f682620003bf565b179392505050565b634e487b7160e01b600052604160045260246000fd5b600181811c908216806200022957607f821691505b6020821081036200024a57634e487b7160e01b600052602260045260246000fd5b50919050565b601f8211156200029e57600081815260208120601f850160051c81016020861015620002795750805b601f850160051c820191505b818110156200029a5782815560010162000285565b5050505b505050565b81516001600160401b03811115620002bf57620002bf620001fe565b620002d781620002d0845462000214565b8462000250565b602080601f8311600181146200030f5760008415620002f65750858301515b600019600386901b1c1916600185901b1785556200029a565b600085815260208120601f198616915b8281101562000340578886015182559484019460019091019084016200031f565b50858210156200035f5787850151600019600388901b60f8161c191681555b5050505050600190811b01905550565b600060208083528351808285015260005b818110156200039e5785810183015185820160400152820162000380565b506000604082860101526040601f19601f8301168501019250505092915050565b805160208083015191908110156200024a5760001960209190910360031b1b16919050565b60805160a05160c05160e051610100516101205161014051611e646200043f6000396000610da601526000610d7901526000610af801526000610ad001526000610a2b01526000610a5501526000610a7f0152611e646000f3fe608060405234801561001057600080fd5b506004361061018e5760003560e01c80637ecebe00116100de5780639dc29fac11610097578063d505accf11610071578063d505accf1461039c578063d5abeb01146103af578063dd62ed3e146103b8578063f1127ed8146103f157600080fd5b80639dc29fac14610363578063a9059cbb14610376578063c3cda5201461038957600080fd5b80637ecebe00146102e857806384b0196e146102fb5780638e539e8c1461031657806391ddadf41461032957806395d89b41146103485780639ab24eb01461035057600080fd5b80633a46b1a81161014b578063587cde1e11610125578063587cde1e146102405780635c19a95c146102845780636fcfff451461029757806370a08231146102bf57600080fd5b80633a46b1a81461021057806340c10f19146102235780634bf5d7e91461023857600080fd5b806306fdde0314610193578063095ea7b3146101b157806318160ddd146101d457806323b872dd146101e6578063313ce567146101f95780633644e51514610208575b600080fd5b61019b610430565b6040516101a89190611a68565b60405180910390f35b6101c46101bf366004611a97565b6104c2565b60405190151581526020016101a8565b6002545b6040519081526020016101a8565b6101c46101f4366004611ac1565b6104dc565b604051601281526020016101a8565b6101d8610500565b6101d861021e366004611a97565b61050f565b610236610231366004611a97565b61054b565b005b61019b6105ba565b61026c61024e366004611afd565b6001600160a01b039081166000908152600860205260409020541690565b6040516001600160a01b0390911681526020016101a8565b610236610292366004611afd565b610632565b6102aa6102a5366004611afd565b61063d565b60405163ffffffff90911681526020016101a8565b6101d86102cd366004611afd565b6001600160a01b031660009081526020819052604090205490565b6101d86102f6366004611afd565b610648565b610303610653565b6040516101a89796959493929190611b18565b6101d8610324366004611bae565b610699565b6103316106be565b60405165ffffffffffff90911681526020016101a8565b61019b6106c8565b6101d861035e366004611afd565b6106d7565b610236610371366004611a97565b6106f8565b6101c4610384366004611a97565b610704565b610236610397366004611bd8565b610712565b6102366103aa366004611c30565b6107cf565b6101d8600b5481565b6101d86103c6366004611c9a565b6001600160a01b03918216600090815260016020908152604080832093909416825291909152205490565b6104046103ff366004611ccd565b610909565b60408051825165ffffffffffff1681526020928301516001600160d01b031692810192909252016101a8565b60606003805461043f90611d0d565b80601f016020809104026020016040519081016040528092919081815260200182805461046b90611d0d565b80156104b85780601f1061048d576101008083540402835291602001916104b8565b820191906000526020600020905b81548152906001019060200180831161049b57829003601f168201915b5050505050905090565b6000336104d081858561092e565b60019150505b92915050565b6000336104ea858285610940565b6104f58585856109bf565b506001949350505050565b600061050a610a1e565b905090565b600061053b61051d83610b49565b6001600160a01b038516600090815260096020526040902090610b98565b6001600160d01b03169392505050565b600b548161055860025490565b6105629190611d5d565b11156105aa5760405162461bcd60e51b815260206004820152601260248201527145786365656473206d617820737570706c7960701b60448201526064015b60405180910390fd5b6105b660008383610c4e565b5050565b60606105c4610cb5565b65ffffffffffff166105d46106be565b65ffffffffffff16146105fa576040516301bfc1c560e61b815260040160405180910390fd5b5060408051808201909152601d81527f6d6f64653d626c6f636b6e756d6265722666726f6d3d64656661756c74000000602082015290565b336105b68183610cc0565b60006104d682610d32565b60006104d682610d54565b600060608060008060006060610667610d72565b61066f610d9f565b60408051600080825260208201909252600f60f81b9b939a50919850469750309650945092509050565b60006106af6106a783610b49565b600a90610b98565b6001600160d01b031692915050565b600061050a610cb5565b60606004805461043f90611d0d565b6001600160a01b03811660009081526009602052604081206106af90610dcc565b6105b682600083610c4e565b6000336104d08185856109bf565b8342111561073657604051632341d78760e11b8152600481018590526024016105a1565b604080517fe48329057bfd03d55e49b547132e39cffd9c1820ad7b9d4c5307691425d15adf60208201526001600160a01b0388169181019190915260608101869052608081018590526000906107b0906107a89060a00160405160208183030381529060405280519060200120610e05565b858585610e32565b90506107bc8187610e60565b6107c68188610cc0565b50505050505050565b834211156107f35760405163313c898160e11b8152600481018590526024016105a1565b60007f6e71edae12b1b97f4d1f60370fef10105fa2faae0126114a169c64845d6126c98888886108408c6001600160a01b0316600090815260076020526040902080546001810190915590565b6040805160208101969096526001600160a01b0394851690860152929091166060840152608083015260a082015260c0810186905260e001604051602081830303815290604052805190602001209050600061089b82610e05565b905060006108ab82878787610e32565b9050896001600160a01b0316816001600160a01b0316146108f2576040516325c0072360e11b81526001600160a01b0380831660048301528b1660248201526044016105a1565b6108fd8a8a8a61092e565b50505050505050505050565b60408051808201909152600080825260208201526109278383610eb3565b9392505050565b61093b8383836001610ee9565b505050565b6001600160a01b038381166000908152600160209081526040808320938616835292905220546000198110156109b957818110156109aa57604051637dc7a0d960e11b81526001600160a01b038416600482015260248101829052604481018390526064016105a1565b6109b984848484036000610ee9565b50505050565b6001600160a01b0383166109e957604051634b637e8f60e11b8152600060048201526024016105a1565b6001600160a01b038216610a135760405163ec442f0560e01b8152600060048201526024016105a1565b61093b838383610fbe565b6000306001600160a01b037f000000000000000000000000000000000000000000000000000000000000000016148015610a7757507f000000000000000000000000000000000000000000000000000000000000000046145b15610aa157507f000000000000000000000000000000000000000000000000000000000000000090565b61050a604080517f8b73c3c69bb8fe3d512ecc4cf759cc79239f7b179b0ffacaa9a75d522b39400f60208201527f0000000000000000000000000000000000000000000000000000000000000000918101919091527f000000000000000000000000000000000000000000000000000000000000000060608201524660808201523060a082015260009060c00160405160208183030381529060405280519060200120905090565b600080610b546106be565b90508065ffffffffffff168310610b8f57604051637669fc0f60e11b81526004810184905265ffffffffffff821660248201526044016105a1565b61092783610fc9565b815460009081816005811115610bf7576000610bb384611000565b610bbd9085611d70565b60008881526020902090915081015465ffffffffffff9081169087161015610be757809150610bf5565b610bf2816001611d5d565b92505b505b6000610c0587878585611159565b90508015610c4057610c2a87610c1c600184611d70565b600091825260209091200190565b54600160301b90046001600160d01b0316610c43565b60005b979650505050505050565b610c598383836111bb565b6001600160a01b038316610caa576000610c7260025490565b90506001600160d01b0380821115610ca757604051630e58ae9360e11b815260048101839052602481018290526044016105a1565b50505b61093b8383836112e5565b600061050a43610fc9565b6001600160a01b0382811660008181526008602052604080822080548686166001600160a01b0319821681179092559151919094169392849290917f3134e8a2e6d97e929a7e54011ea5485d7d196dd5f0ba4d4ef95803e8e3fc257f9190a461093b8183610d2d86611360565b61137e565b6001600160a01b0381166000908152600960205260408120546104d6906114e5565b6001600160a01b0381166000908152600760205260408120546104d6565b606061050a7f00000000000000000000000000000000000000000000000000000000000000006005611516565b606061050a7f00000000000000000000000000000000000000000000000000000000000000006006611516565b80546000908015610dfc57610de683610c1c600184611d70565b54600160301b90046001600160d01b0316610927565b60009392505050565b60006104d6610e12610a1e565b8360405161190160f01b8152600281019290925260228201526042902090565b600080600080610e44888888886115c1565b925092509250610e548282611690565b50909695505050505050565b6001600160a01b038216600090815260076020526040902080546001810190915581811461093b576040516301d4b62360e61b81526001600160a01b0384166004820152602481018290526044016105a1565b60408051808201909152600080825260208201526001600160a01b03831660009081526009602052604090206109279083611749565b6001600160a01b038416610f135760405163e602df0560e01b8152600060048201526024016105a1565b6001600160a01b038316610f3d57604051634a1406b160e11b8152600060048201526024016105a1565b6001600160a01b03808516600090815260016020908152604080832093871683529290522082905580156109b957826001600160a01b0316846001600160a01b03167f8c5be1e5ebec7d5bd14f71427d1e84f3dd0314c0f7b2291e5b200ac8c7c3b92584604051610fb091815260200190565b60405180910390a350505050565b61093b838383610c4e565b600065ffffffffffff821115610ffc576040516306dfcc6560e41b815260306004820152602481018390526044016105a1565b5090565b60006001821161100e575090565b816001600160801b82106110275760809190911c9060401b5b6801000000000000000082106110425760409190911c9060201b5b64010000000082106110595760209190911c9060101b5b62010000821061106e5760109190911c9060081b5b61010082106110825760089190911c9060041b5b601082106110955760049190911c9060021b5b600482106110a15760011b5b600302600190811c908185816110b9576110b9611d83565b048201901c905060018185816110d1576110d1611d83565b048201901c905060018185816110e9576110e9611d83565b048201901c9050600181858161110157611101611d83565b048201901c9050600181858161111957611119611d83565b048201901c9050600181858161113157611131611d83565b048201901c905061115081858161114a5761114a611d83565b04821190565b90039392505050565b60005b818310156111b357600061117084846117b9565b60008781526020902090915065ffffffffffff86169082015465ffffffffffff16111561119f578092506111ad565b6111aa816001611d5d565b93505b5061115c565b509392505050565b6001600160a01b0383166111e65780600260008282546111db9190611d5d565b909155506112589050565b6001600160a01b038316600090815260208190526040902054818110156112395760405163391434e360e21b81526001600160a01b038516600482015260248101829052604481018390526064016105a1565b6001600160a01b03841660009081526020819052604090209082900390555b6001600160a01b03821661127457600280548290039055611293565b6001600160a01b03821660009081526020819052604090208054820190555b816001600160a01b0316836001600160a01b03167fddf252ad1be2c89b69c2b068fc378daa952ba7f163c4a11628f55a4df523b3ef836040516112d891815260200190565b60405180910390a3505050565b6001600160a01b03831661130c57611309600a6117d4611304846117e0565b611814565b50505b6001600160a01b03821661132e5761132b600a61184d611304846117e0565b50505b6001600160a01b0383811660009081526008602052604080822054858416835291205461093b9291821691168361137e565b6001600160a01b0381166000908152602081905260408120546104d6565b816001600160a01b0316836001600160a01b0316141580156113a05750600081115b1561093b576001600160a01b03831615611443576001600160a01b038316600090815260096020526040812081906113de9061184d611304866117e0565b6001600160d01b031691506001600160d01b03169150846001600160a01b03167fdec2bacdd2f05b59de34da9b523dff8be42e5e38e818c82fdb0bae774387a7248383604051611438929190918252602082015260400190565b60405180910390a250505b6001600160a01b0382161561093b576001600160a01b0382166000908152600960205260408120819061147c906117d4611304866117e0565b6001600160d01b031691506001600160d01b03169150836001600160a01b03167fdec2bacdd2f05b59de34da9b523dff8be42e5e38e818c82fdb0bae774387a72483836040516114d6929190918252602082015260400190565b60405180910390a25050505050565b600063ffffffff821115610ffc576040516306dfcc6560e41b815260206004820152602481018390526044016105a1565b606060ff83146115305761152983611859565b90506104d6565b81805461153c90611d0d565b80601f016020809104026020016040519081016040528092919081815260200182805461156890611d0d565b80156115b55780601f1061158a576101008083540402835291602001916115b5565b820191906000526020600020905b81548152906001019060200180831161159857829003601f168201915b505050505090506104d6565b600080807f7fffffffffffffffffffffffffffffff5d576e7357a4501ddfe92f46681b20a08411156115fc5750600091506003905082611686565b604080516000808252602082018084528a905260ff891692820192909252606081018790526080810186905260019060a0016020604051602081039080840390855afa158015611650573d6000803e3d6000fd5b5050604051601f1901519150506001600160a01b03811661167c57506000925060019150829050611686565b9250600091508190505b9450945094915050565b60008260038111156116a4576116a4611d99565b036116ad575050565b60018260038111156116c1576116c1611d99565b036116df5760405163f645eedf60e01b815260040160405180910390fd5b60028260038111156116f3576116f3611d99565b036117145760405163fce698f760e01b8152600481018290526024016105a1565b600382600381111561172857611728611d99565b036105b6576040516335e2f38360e21b8152600481018290526024016105a1565b6040805180820190915260008082526020820152826000018263ffffffff168154811061177857611778611daf565b60009182526020918290206040805180820190915291015465ffffffffffff81168252600160301b90046001600160d01b0316918101919091529392505050565b60006117c86002848418611dc5565b61092790848416611d5d565b60006109278284611de7565b60006001600160d01b03821115610ffc576040516306dfcc6560e41b815260d06004820152602481018390526044016105a1565b6000806118406118226106be565b61183861182e88610dcc565b868863ffffffff16565b879190611898565b915091505b935093915050565b60006109278284611e0e565b60606000611866836118a6565b604080516020808252818301909252919250600091906020820181803683375050509182525060208101929092525090565b6000806118408585856118ce565b600060ff8216601f8111156104d657604051632cd44ac360e21b815260040160405180910390fd5b8254600090819080156119c75760006118ec87610c1c600185611d70565b805490915065ffffffffffff80821691600160301b90046001600160d01b031690881682111561192f57604051632520601d60e01b815260040160405180910390fd5b8765ffffffffffff168265ffffffffffff160361196857825465ffffffffffff16600160301b6001600160d01b038916021783556119b9565b6040805180820190915265ffffffffffff808a1682526001600160d01b03808a1660208085019182528d54600181018f5560008f81529190912094519151909216600160301b029216919091179101555b945085935061184592505050565b50506040805180820190915265ffffffffffff80851682526001600160d01b0380851660208085019182528854600181018a5560008a815291822095519251909316600160301b029190931617920191909155905081611845565b6000815180845260005b81811015611a4857602081850181015186830182015201611a2c565b506000602082860101526020601f19601f83011685010191505092915050565b6020815260006109276020830184611a22565b80356001600160a01b0381168114611a9257600080fd5b919050565b60008060408385031215611aaa57600080fd5b611ab383611a7b565b946020939093013593505050565b600080600060608486031215611ad657600080fd5b611adf84611a7b565b9250611aed60208501611a7b565b9150604084013590509250925092565b600060208284031215611b0f57600080fd5b61092782611a7b565b60ff60f81b881681526000602060e081840152611b3860e084018a611a22565b8381036040850152611b4a818a611a22565b606085018990526001600160a01b038816608086015260a0850187905284810360c0860152855180825283870192509083019060005b81811015611b9c57835183529284019291840191600101611b80565b50909c9b505050505050505050505050565b600060208284031215611bc057600080fd5b5035919050565b803560ff81168114611a9257600080fd5b60008060008060008060c08789031215611bf157600080fd5b611bfa87611a7b565b95506020870135945060408701359350611c1660608801611bc7565b92506080870135915060a087013590509295509295509295565b600080600080600080600060e0888a031215611c4b57600080fd5b611c5488611a7b565b9650611c6260208901611a7b565b95506040880135945060608801359350611c7e60808901611bc7565b925060a0880135915060c0880135905092959891949750929550565b60008060408385031215611cad57600080fd5b611cb683611a7b565b9150611cc460208401611a7b565b90509250929050565b60008060408385031215611ce057600080fd5b611ce983611a7b565b9150602083013563ffffffff81168114611d0257600080fd5b809150509250929050565b600181811c90821680611d2157607f821691505b602082108103611d4157634e487b7160e01b600052602260045260246000fd5b50919050565b634e487b7160e01b600052601160045260246000fd5b808201808211156104d6576104d6611d47565b818103818111156104d6576104d6611d47565b634e487b7160e01b600052601260045260246000fd5b634e487b7160e01b600052602160045260246000fd5b634e487b7160e01b600052603260045260246000fd5b600082611de257634e487b7160e01b600052601260045260246000fd5b500490565b6001600160d01b03818116838216019080821115611e0757611e07611d47565b5092915050565b6001600160d01b03828116828216039080821115611e0757611e07611d4756fea2646970667358221220537aad879b84818461c33e9e8e53e7b461156b205869e3c9da5aaedec83713a264736f6c63430008140033",
  "linkReferences": {},
  "deployedLinkReferences": {}
}