{
  "_format": "hh-sol-artifact-1",
  "contractName": "PoolFactory",
  "sourceName": "contracts/PoolFactory.sol",
  "abi": [
    {
      "anonymous": false,
      "inputs": [
        {
          "indexed": true,
          "internalType": "address",
          "name": "creator",
          "type": "address"
        },
        {
          "indexed": false,
          "internalType": "address",
          "name": "poolAddress",
          "type": "address"
        }
      ],
      "name": "PoolCreated",
      "type": "event"
    },
    {
      "inputs": [
        {
          "internalType": "uint256",
          "name": "",
          "type": "uint256"
        }
      ],
      "name": "allPools",
      "outputs": [
        {
          "internalType": "address",
          "name": "",
          "type": "address"
        }
      ],
      "stateMutability": "view",
      "type": "function"
    },
    {
      "inputs": [
        {
          "internalType": "uint256",
          "name": "goal",
          "type": "uint256"
        },
        {
          "internalType": "uint256",
          "name": "durationInDays",
          "type": "uint256"
        },
        {
          "internalType": "uint256",
          "name": "minContribution",
          "type": "uint256"
        },
        {
          "internalType": "string",
          "name": "category",
          "type": "string"
        },
        {
          "internalType": "string",
          "name": "name",
          "type": "string"
        },
        {
          "internalType": "string",
          "name": "description",
          "type": "string"
        },
        {
          "internalType": "string",
          "name": "visibility",
          "type": "string"
        }
      ],
      "name": "createPool",
      "outputs": [
        {
          "internalType": "address",
          "name": "",
          "type": "address"
        }
      ],
      "stateMutability": "nonpayable",
      "type": "function"
    },
    {
      "inputs": [],
      "name": "getAllPools",
      "outputs": [
        {
          "internalType": "address[]",
          "name": "",
          "type": "address[]"
        }
      ],
      "stateMutability": "view",
      "type": "function"
    },
    {
      "inputs": [
        {
          "internalType": "address",
          "name": "creator",
          "type": "address"
        }
      ],
      "name": "getPoolsByCreator",
      "outputs": [
        {
          "internalType": "address[]",
          "name": "",
          "type": "address[]"
        }
      ],
      "stateMutability": "view",
      "type": "function"
    },
    {
      "inputs": [
        {
          "internalType": "address",
          "name": "",
          "type": "address"
        },
        {
          "internalType": "uint256",
          "name": "",
          "type": "uint256"
        }
      ],
      "name": "poolsByCreator",
      "outputs": [
        {
          "internalType": "address",
          "name": "",
          "type": "address"
        }
      ],
      "stateMutability": "view",
      "type": "function"
    }
  ],
  "bytecode": "0x608060405234801561001057600080fd5b50612355806100206000396000f3fe60806040523480156200001157600080fd5b50600436106200005e5760003560e01c806322af8e6b146200006357806341d1de971462000099578063c84728ef14620000cf578063d88ff1f41462000105578063fcbf570b1462000127575b600080fd5b6200008160048036038101906200007b9190620006b8565b6200015d565b6040516200009091906200082c565b60405180910390f35b620000b76004803603810190620000b1919062000849565b6200030b565b604051620000c691906200082c565b60405180910390f35b620000ed6004803603810190620000e79190620008ac565b6200034b565b604051620000fc9190620009ac565b60405180910390f35b6200010f6200041a565b6040516200011e9190620009ac565b60405180910390f35b6200014560048036038101906200013f9190620009d0565b620004aa565b6040516200015491906200082c565b60405180910390f35b60008033898989898989896040516200017690620004f9565b6200018998979695949392919062000ab1565b604051809103906000f080158015620001a6573d6000803e3d6000fd5b5090506000819080600181540180825580915050600190039060005260206000200160009091909190916101000a81548173ffffffffffffffffffffffffffffffffffffffff021916908373ffffffffffffffffffffffffffffffffffffffff160217905550600160003373ffffffffffffffffffffffffffffffffffffffff1673ffffffffffffffffffffffffffffffffffffffff168152602001908152602001600020819080600181540180825580915050600190039060005260206000200160009091909190916101000a81548173ffffffffffffffffffffffffffffffffffffffff021916908373ffffffffffffffffffffffffffffffffffffffff1602179055503373ffffffffffffffffffffffffffffffffffffffff167f4f2ce4e40f623ca765fc0167a25cb7842ceaafb8d82d3dec26ca0d0e0d2d489682604051620002f491906200082c565b60405180910390a280915050979650505050505050565b600081815481106200031c57600080fd5b906000526020600020016000915054906101000a900473ffffffffffffffffffffffffffffffffffffffff1681565b6060600160008373ffffffffffffffffffffffffffffffffffffffff1673ffffffffffffffffffffffffffffffffffffffff1681526020019081526020016000208054806020026020016040519081016040528092919081815260200182805480156200040e57602002820191906000526020600020905b8160009054906101000a900473ffffffffffffffffffffffffffffffffffffffff1673ffffffffffffffffffffffffffffffffffffffff1681526020019060010190808311620003c3575b50505050509050919050565b60606000805480602002602001604051908101604052809291908181526020018280548015620004a057602002820191906000526020600020905b8160009054906101000a900473ffffffffffffffffffffffffffffffffffffffff1673ffffffffffffffffffffffffffffffffffffffff168152602001906001019080831162000455575b5050505050905090565b60016020528160005260406000208181548110620004c757600080fd5b906000526020600020016000915091509054906101000a900473ffffffffffffffffffffffffffffffffffffffff1681565b6117c48062000b5c83390190565b6000604051905090565b600080fd5b600080fd5b6000819050919050565b62000530816200051b565b81146200053c57600080fd5b50565b600081359050620005508162000525565b92915050565b600080fd5b600080fd5b6000601f19601f8301169050919050565b7f4e487b7100000000000000000000000000000000000000000000000000000000600052604160045260246000fd5b620005ab8262000560565b810181811067ffffffffffffffff82111715620005cd57620005cc62000571565b5b80604052505050565b6000620005e262000507565b9050620005f08282620005a0565b919050565b600067ffffffffffffffff82111562000613576200061262000571565b5b6200061e8262000560565b9050602081019050919050565b82818337600083830152505050565b6000620006516200064b84620005f5565b620005d6565b90508281526020810184848401111562000670576200066f6200055b565b5b6200067d8482856200062b565b509392505050565b600082601f8301126200069d576200069c62000556565b5b8135620006af8482602086016200063a565b91505092915050565b600080600080600080600060e0888a031215620006da57620006d962000511565b5b6000620006ea8a828b016200053f565b9750506020620006fd8a828b016200053f565b9650506040620007108a828b016200053f565b955050606088013567ffffffffffffffff81111562000734576200073362000516565b5b620007428a828b0162000685565b945050608088013567ffffffffffffffff81111562000766576200076562000516565b5b620007748a828b0162000685565b93505060a088013567ffffffffffffffff81111562000798576200079762000516565b5b620007a68a828b0162000685565b92505060c088013567ffffffffffffffff811115620007ca57620007c962000516565b5b620007d88a828b0162000685565b91505092959891949750929550565b600073ffffffffffffffffffffffffffffffffffffffff82169050919050565b60006200081482620007e7565b9050919050565b620008268162000807565b82525050565b60006020820190506200084360008301846200081b565b92915050565b60006020828403121562000862576200086162000511565b5b600062000872848285016200053f565b91505092915050565b620008868162000807565b81146200089257600080fd5b50565b600081359050620008a6816200087b565b92915050565b600060208284031215620008c557620008c462000511565b5b6000620008d58482850162000895565b91505092915050565b600081519050919050565b600082825260208201905092915050565b6000819050602082019050919050565b620009158162000807565b82525050565b60006200092983836200090a565b60208301905092915050565b6000602082019050919050565b60006200094f82620008de565b6200095b8185620008e9565b93506200096883620008fa565b8060005b838110156200099f5781516200098388826200091b565b9750620009908362000935565b9250506001810190506200096c565b5085935050505092915050565b60006020820190508181036000830152620009c8818462000942565b905092915050565b60008060408385031215620009ea57620009e962000511565b5b6000620009fa8582860162000895565b925050602062000a0d858286016200053f565b9150509250929050565b62000a22816200051b565b82525050565b600081519050919050565b600082825260208201905092915050565b60005b8381101562000a6457808201518184015260208101905062000a47565b60008484015250505050565b600062000a7d8262000a28565b62000a89818562000a33565b935062000a9b81856020860162000a44565b62000aa68162000560565b840191505092915050565b60006101008201905062000ac9600083018b6200081b565b62000ad8602083018a62000a17565b62000ae7604083018962000a17565b62000af6606083018862000a17565b818103608083015262000b0a818762000a70565b905081810360a083015262000b20818662000a70565b905081810360c083015262000b36818562000a70565b905081810360e083015262000b4c818462000a70565b9050999850505050505050505056fe60806040523480156200001157600080fd5b50604051620017c4380380620017c4833981810160405281019062000037919062000354565b876000806101000a81548173ffffffffffffffffffffffffffffffffffffffff021916908373ffffffffffffffffffffffffffffffffffffffff16021790555086600181905550846003819055506201518086620000969190620004c8565b42620000a3919062000513565b6002819055508360089081620000ba91906200078f565b508260069081620000cc91906200078f565b508160079081620000de91906200078f565b508060099081620000f091906200078f565b50426004819055506000600560006101000a81548160ff021916908315150217905550505050505050505062000876565b6000604051905090565b600080fd5b600080fd5b600073ffffffffffffffffffffffffffffffffffffffff82169050919050565b6000620001628262000135565b9050919050565b620001748162000155565b81146200018057600080fd5b50565b600081519050620001948162000169565b92915050565b6000819050919050565b620001af816200019a565b8114620001bb57600080fd5b50565b600081519050620001cf81620001a4565b92915050565b600080fd5b600080fd5b6000601f19601f8301169050919050565b7f4e487b7100000000000000000000000000000000000000000000000000000000600052604160045260246000fd5b6200022a82620001df565b810181811067ffffffffffffffff821117156200024c576200024b620001f0565b5b80604052505050565b60006200026162000121565b90506200026f82826200021f565b919050565b600067ffffffffffffffff821115620002925762000291620001f0565b5b6200029d82620001df565b9050602081019050919050565b60005b83811015620002ca578082015181840152602081019050620002ad565b60008484015250505050565b6000620002ed620002e78462000274565b62000255565b9050828152602081018484840111156200030c576200030b620001da565b5b62000319848285620002aa565b509392505050565b600082601f830112620003395762000338620001d5565b5b81516200034b848260208601620002d6565b91505092915050565b600080600080600080600080610100898b0312156200037857620003776200012b565b5b6000620003888b828c0162000183565b98505060206200039b8b828c01620001be565b9750506040620003ae8b828c01620001be565b9650506060620003c18b828c01620001be565b955050608089015167ffffffffffffffff811115620003e557620003e462000130565b5b620003f38b828c0162000321565b94505060a089015167ffffffffffffffff81111562000417576200041662000130565b5b620004258b828c0162000321565b93505060c089015167ffffffffffffffff81111562000449576200044862000130565b5b620004578b828c0162000321565b92505060e089015167ffffffffffffffff8111156200047b576200047a62000130565b5b620004898b828c0162000321565b9150509295985092959890939650565b7f4e487b7100000000000000000000000000000000000000000000000000000000600052601160045260246000fd5b6000620004d5826200019a565b9150620004e2836200019a565b9250828202620004f2816200019a565b915082820484148315176200050c576200050b62000499565b5b5092915050565b600062000520826200019a565b91506200052d836200019a565b925082820190508082111562000548576200054762000499565b5b92915050565b600081519050919050565b7f4e487b7100000000000000000000000000000000000000000000000000000000600052602260045260246000fd5b60006002820490506001821680620005a157607f821691505b602082108103620005b757620005b662000559565b5b50919050565b60008190508160005260206000209050919050565b60006020601f8301049050919050565b600082821b905092915050565b600060088302620006217fffffffffffffffffffffffffffffffffffffffffffffffffffffffffffffffff82620005e2565b6200062d8683620005e2565b95508019841693508086168417925050509392505050565b6000819050919050565b6000620006706200066a62000664846200019a565b62000645565b6200019a565b9050919050565b6000819050919050565b6200068c836200064f565b620006a46200069b8262000677565b848454620005ef565b825550505050565b600090565b620006bb620006ac565b620006c881848462000681565b505050565b5b81811015620006f057620006e4600082620006b1565b600181019050620006ce565b5050565b601f8211156200073f576200070981620005bd565b6200071484620005d2565b8101602085101562000724578190505b6200073c6200073385620005d2565b830182620006cd565b50505b505050565b600082821c905092915050565b6000620007646000198460080262000744565b1980831691505092915050565b60006200077f838362000751565b9150826002028217905092915050565b6200079a826200054e565b67ffffffffffffffff811115620007b657620007b5620001f0565b5b620007c2825462000588565b620007cf828285620006f4565b600060209050601f831160018114620008075760008415620007f2578287015190505b620007fe858262000771565b8655506200086e565b601f1984166200081786620005bd565b60005b8281101562000841578489015182556001820191506020850194506020810190506200081a565b868310156200086157848901516200085d601f89168262000751565b8355505b6001600288020188555050505b505050505050565b610f3e80620008866000396000f3fe6080604052600436106100e85760003560e01c806342e94c901161008a578063c80ec52211610059578063c80ec522146102c4578063cf09e0d0146102ef578063d7bb99ba1461031a578063ef430aa614610324576100e8565b806342e94c90146102065780637284e4161461024357806381c35cbd1461026e578063aaffadf314610299576100e8565b806329adec14116100c657806329adec141461016e57806329dcb0cf146101995780633ccfd60b146101c457806340193883146101db576100e8565b806302d05d3f146100ed57806306fdde031461011857806312b5834914610143575b600080fd5b3480156100f957600080fd5b5061010261034f565b60405161010f9190610a28565b60405180910390f35b34801561012457600080fd5b5061012d610373565b60405161013a9190610ad3565b60405180910390f35b34801561014f57600080fd5b50610158610405565b6040516101659190610b0e565b60405180910390f35b34801561017a57600080fd5b5061018361040d565b6040516101909190610ad3565b60405180910390f35b3480156101a557600080fd5b506101ae61049f565b6040516101bb9190610b0e565b60405180910390f35b3480156101d057600080fd5b506101d96104a5565b005b3480156101e757600080fd5b506101f06106cd565b6040516101fd9190610b0e565b60405180910390f35b34801561021257600080fd5b5061022d60048036038101906102289190610b5a565b6106d3565b60405161023a9190610b0e565b60405180910390f35b34801561024f57600080fd5b506102586106eb565b6040516102659190610ad3565b60405180910390f35b34801561027a57600080fd5b5061028361077d565b6040516102909190610b0e565b60405180910390f35b3480156102a557600080fd5b506102ae6107c4565b6040516102bb9190610b0e565b60405180910390f35b3480156102d057600080fd5b506102d96107ca565b6040516102e69190610ba2565b60405180910390f35b3480156102fb57600080fd5b506103046107dd565b6040516103119190610b0e565b60405180910390f35b6103226107e3565b005b34801561033057600080fd5b50610339610955565b6040516103469190610ad3565b60405180910390f35b60008054906101000a900473ffffffffffffffffffffffffffffffffffffffff1681565b60606006805461038290610bec565b80601f01602080910402602001604051908101604052809291908181526020018280546103ae90610bec565b80156103fb5780601f106103d0576101008083540402835291602001916103fb565b820191906000526020600020905b8154815290600101906020018083116103de57829003601f168201915b5050505050905090565b600047905090565b60606009805461041c90610bec565b80601f016020809104026020016040519081016040528092919081815260200182805461044890610bec565b80156104955780601f1061046a57610100808354040283529160200191610495565b820191906000526020600020905b81548152906001019060200180831161047857829003601f168201915b5050505050905090565b60025481565b60008054906101000a900473ffffffffffffffffffffffffffffffffffffffff1673ffffffffffffffffffffffffffffffffffffffff163373ffffffffffffffffffffffffffffffffffffffff1614610533576040517f08c379a000000000000000000000000000000000000000000000000000000000815260040161052a90610c69565b60405180910390fd5b600560009054906101000a900460ff1615610583576040517f08c379a000000000000000000000000000000000000000000000000000000000815260040161057a90610cd5565b60405180910390fd5b6001544710158061059657506002544210155b6105d5576040517f08c379a00000000000000000000000000000000000000000000000000000000081526004016105cc90610d41565b60405180910390fd5b6001600560006101000a81548160ff021916908315150217905550600047905060008054906101000a900473ffffffffffffffffffffffffffffffffffffffff1673ffffffffffffffffffffffffffffffffffffffff166108fc829081150290604051600060405180830381858888f1935050505015801561065b573d6000803e3d6000fd5b5060008054906101000a900473ffffffffffffffffffffffffffffffffffffffff1673ffffffffffffffffffffffffffffffffffffffff167f7084f5476618d8e60b11ef0d7d3f06914655adb8793e28ff7f018d4c76d505d5826040516106c29190610b0e565b60405180910390a250565b60015481565b600a6020528060005260406000206000915090505481565b6060600780546106fa90610bec565b80601f016020809104026020016040519081016040528092919081815260200182805461072690610bec565b80156107735780601f1061074857610100808354040283529160200191610773565b820191906000526020600020905b81548152906001019060200180831161075657829003601f168201915b5050505050905090565b6000600a60003373ffffffffffffffffffffffffffffffffffffffff1673ffffffffffffffffffffffffffffffffffffffff16815260200190815260200160002054905090565b60035481565b600560009054906101000a900460ff1681565b60045481565b60003411610826576040517f08c379a000000000000000000000000000000000000000000000000000000000815260040161081d90610dad565b60405180910390fd5b60035434101561086b576040517f08c379a000000000000000000000000000000000000000000000000000000000815260040161086290610e19565b60405180910390fd5b60025442106108af576040517f08c379a00000000000000000000000000000000000000000000000000000000081526004016108a690610e85565b60405180910390fd5b34600a60003373ffffffffffffffffffffffffffffffffffffffff1673ffffffffffffffffffffffffffffffffffffffff16815260200190815260200160002060008282546108fe9190610ed4565b925050819055503373ffffffffffffffffffffffffffffffffffffffff167f62722348256371b5147820d6cad90c40fd2da1ccee18c3ed52c0bca5a61dbbab3460405161094b9190610b0e565b60405180910390a2565b60606008805461096490610bec565b80601f016020809104026020016040519081016040528092919081815260200182805461099090610bec565b80156109dd5780601f106109b2576101008083540402835291602001916109dd565b820191906000526020600020905b8154815290600101906020018083116109c057829003601f168201915b5050505050905090565b600073ffffffffffffffffffffffffffffffffffffffff82169050919050565b6000610a12826109e7565b9050919050565b610a2281610a07565b82525050565b6000602082019050610a3d6000830184610a19565b92915050565b600081519050919050565b600082825260208201905092915050565b60005b83811015610a7d578082015181840152602081019050610a62565b60008484015250505050565b6000601f19601f8301169050919050565b6000610aa582610a43565b610aaf8185610a4e565b9350610abf818560208601610a5f565b610ac881610a89565b840191505092915050565b60006020820190508181036000830152610aed8184610a9a565b905092915050565b6000819050919050565b610b0881610af5565b82525050565b6000602082019050610b236000830184610aff565b92915050565b600080fd5b610b3781610a07565b8114610b4257600080fd5b50565b600081359050610b5481610b2e565b92915050565b600060208284031215610b7057610b6f610b29565b5b6000610b7e84828501610b45565b91505092915050565b60008115159050919050565b610b9c81610b87565b82525050565b6000602082019050610bb76000830184610b93565b92915050565b7f4e487b7100000000000000000000000000000000000000000000000000000000600052602260045260246000fd5b60006002820490506001821680610c0457607f821691505b602082108103610c1757610c16610bbd565b5b50919050565b7f4f6e6c792063726561746f722063616e20776974686472617700000000000000600082015250565b6000610c53601983610a4e565b9150610c5e82610c1d565b602082019050919050565b60006020820190508181036000830152610c8281610c46565b9050919050565b7f416c72656164792077697468647261776e000000000000000000000000000000600082015250565b6000610cbf601183610a4e565b9150610cca82610c89565b602082019050919050565b60006020820190508181036000830152610cee81610cb2565b9050919050565b7f43616e6e6f742077697468647261772079657400000000000000000000000000600082015250565b6000610d2b601383610a4e565b9150610d3682610cf5565b602082019050919050565b60006020820190508181036000830152610d5a81610d1e565b9050919050565b7f4d7573742073656e6420736f6d65204554480000000000000000000000000000600082015250565b6000610d97601283610a4e565b9150610da282610d61565b602082019050919050565b60006020820190508181036000830152610dc681610d8a565b9050919050565b7f42656c6f77206d696e696d756d20636f6e747269627574696f6e000000000000600082015250565b6000610e03601a83610a4e565b9150610e0e82610dcd565b602082019050919050565b60006020820190508181036000830152610e3281610df6565b9050919050565b7f506f6f6c20686173206578706972656400000000000000000000000000000000600082015250565b6000610e6f601083610a4e565b9150610e7a82610e39565b602082019050919050565b60006020820190508181036000830152610e9e81610e62565b9050919050565b7f4e487b7100000000000000000000000000000000000000000000000000000000600052601160045260246000fd5b6000610edf82610af5565b9150610eea83610af5565b9250828201905080821115610f0257610f01610ea5565b5b9291505056fea2646970667358221220d1b39044de1147a8e7ba28e46a5c5baf2f6c51eb808e36806c53434ce174ebcc64736f6c63430008140033a264697066735822122078088813e365c8e319444417d0eeaeafb28fc8f193f7d957eb4baa499b0620aa64736f6c63430008140033",
  "linkReferences": {},
  "deployedLinkReferences": {}
}