{
  "_format": "hh-sol-artifact-1",
  "contractName": "Pool",
  "sourceName": "contracts/Pool.sol",
  "abi": [
    {
      "inputs": [
        {
          "internalType": "uint256",
          "name": "_goal",
          "type": "uint256"
        },
        {
          "internalType": "uint256",
          "name": "_durationInDays",
          "type": "uint256"
        },
        {
          "internalType": "string",
          "name": "_name",
          "type": "string"
        },
        {
          "internalType": "string",
          "name": "_description",
          "type": "string"
        }
      ],
      "stateMutability": "nonpayable",
      "type": "constructor"
    },
    {
      "anonymous": false,
      "inputs": [
        {
          "indexed": true,
          "internalType": "address",
          "name": "contributor",
          "type": "address"
        },
        {
          "indexed": false,
          "internalType": "uint256",
          "name": "amount",
          "type": "uint256"
        }
      ],
      "name": "Contributed",
      "type": "event"
    },
    {
      "anonymous": false,
      "inputs": [
        {
          "indexed": true,
          "internalType": "address",
          "name": "to",
          "type": "address"
        },
        {
          "indexed": false,
          "internalType": "uint256",
          "name": "amount",
          "type": "uint256"
        }
      ],
      "name": "Withdrawn",
      "type": "event"
    },
    {
      "inputs": [],
      "name": "contribute",
      "outputs": [],
      "stateMutability": "payable",
      "type": "function"
    },
    {
      "inputs": [
        {
          "internalType": "address",
          "name": "",
          "type": "address"
        }
      ],
      "name": "contributions",
      "outputs": [
        {
          "internalType": "uint256",
          "name": "",
          "type": "uint256"
        }
      ],
      "stateMutability": "view",
      "type": "function"
    },
    {
      "inputs": [],
      "name": "creator",
      "outputs": [
        {
          "internalType": "address",
          "name": "",
          "type": "address"
        }
      ],
      "stateMutability": "view",
      "type": "function"
    },
    {
      "inputs": [],
      "name": "deadline",
      "outputs": [
        {
          "internalType": "uint256",
          "name": "",
          "type": "uint256"
        }
      ],
      "stateMutability": "view",
      "type": "function"
    },
    {
      "inputs": [],
      "name": "description",
      "outputs": [
        {
          "internalType": "string",
          "name": "",
          "type": "string"
        }
      ],
      "stateMutability": "view",
      "type": "function"
    },
    {
      "inputs": [],
      "name": "getMyContribution",
      "outputs": [
        {
          "internalType": "uint256",
          "name": "",
          "type": "uint256"
        }
      ],
      "stateMutability": "view",
      "type": "function"
    },
    {
      "inputs": [],
      "name": "getTotalBalance",
      "outputs": [
        {
          "internalType": "uint256",
          "name": "",
          "type": "uint256"
        }
      ],
      "stateMutability": "view",
      "type": "function"
    },
    {
      "inputs": [],
      "name": "goal",
      "outputs": [
        {
          "internalType": "uint256",
          "name": "",
          "type": "uint256"
        }
      ],
      "stateMutability": "view",
      "type": "function"
    },
    {
      "inputs": [],
      "name": "name",
      "outputs": [
        {
          "internalType": "string",
          "name": "",
          "type": "string"
        }
      ],
      "stateMutability": "view",
      "type": "function"
    },
    {
      "inputs": [],
      "name": "withdraw",
      "outputs": [],
      "stateMutability": "nonpayable",
      "type": "function"
    },
    {
      "inputs": [],
      "name": "withdrawn",
      "outputs": [
        {
          "internalType": "bool",
          "name": "",
          "type": "bool"
        }
      ],
      "stateMutability": "view",
      "type": "function"
    }
  ],
  "bytecode": "0x60806040523480156200001157600080fd5b50604051620013b3380380620013b38339818101604052810190620000379190620002b9565b336000806101000a81548173ffffffffffffffffffffffffffffffffffffffff021916908373ffffffffffffffffffffffffffffffffffffffff1602179055508360018190555062015180836200008f919062000398565b426200009c9190620003e3565b6002819055508160049081620000b391906200065f565b508060059081620000c591906200065f565b506000600360006101000a81548160ff0219169083151502179055505050505062000746565b6000604051905090565b600080fd5b600080fd5b6000819050919050565b6200011481620000ff565b81146200012057600080fd5b50565b600081519050620001348162000109565b92915050565b600080fd5b600080fd5b6000601f19601f8301169050919050565b7f4e487b7100000000000000000000000000000000000000000000000000000000600052604160045260246000fd5b6200018f8262000144565b810181811067ffffffffffffffff82111715620001b157620001b062000155565b5b80604052505050565b6000620001c6620000eb565b9050620001d4828262000184565b919050565b600067ffffffffffffffff821115620001f757620001f662000155565b5b620002028262000144565b9050602081019050919050565b60005b838110156200022f57808201518184015260208101905062000212565b60008484015250505050565b6000620002526200024c84620001d9565b620001ba565b9050828152602081018484840111156200027157620002706200013f565b5b6200027e8482856200020f565b509392505050565b600082601f8301126200029e576200029d6200013a565b5b8151620002b08482602086016200023b565b91505092915050565b60008060008060808587031215620002d657620002d5620000f5565b5b6000620002e68782880162000123565b9450506020620002f98782880162000123565b935050604085015167ffffffffffffffff8111156200031d576200031c620000fa565b5b6200032b8782880162000286565b925050606085015167ffffffffffffffff8111156200034f576200034e620000fa565b5b6200035d8782880162000286565b91505092959194509250565b7f4e487b7100000000000000000000000000000000000000000000000000000000600052601160045260246000fd5b6000620003a582620000ff565b9150620003b283620000ff565b9250828202620003c281620000ff565b91508282048414831517620003dc57620003db62000369565b5b5092915050565b6000620003f082620000ff565b9150620003fd83620000ff565b925082820190508082111562000418576200041762000369565b5b92915050565b600081519050919050565b7f4e487b7100000000000000000000000000000000000000000000000000000000600052602260045260246000fd5b600060028204905060018216806200047157607f821691505b60208210810362000487576200048662000429565b5b50919050565b60008190508160005260206000209050919050565b60006020601f8301049050919050565b600082821b905092915050565b600060088302620004f17fffffffffffffffffffffffffffffffffffffffffffffffffffffffffffffffff82620004b2565b620004fd8683620004b2565b95508019841693508086168417925050509392505050565b6000819050919050565b6000620005406200053a6200053484620000ff565b62000515565b620000ff565b9050919050565b6000819050919050565b6200055c836200051f565b620005746200056b8262000547565b848454620004bf565b825550505050565b600090565b6200058b6200057c565b6200059881848462000551565b505050565b5b81811015620005c057620005b460008262000581565b6001810190506200059e565b5050565b601f8211156200060f57620005d9816200048d565b620005e484620004a2565b81016020851015620005f4578190505b6200060c6200060385620004a2565b8301826200059d565b50505b505050565b600082821c905092915050565b6000620006346000198460080262000614565b1980831691505092915050565b60006200064f838362000621565b9150826002028217905092915050565b6200066a826200041e565b67ffffffffffffffff81111562000686576200068562000155565b5b62000692825462000458565b6200069f828285620005c4565b600060209050601f831160018114620006d75760008415620006c2578287015190505b620006ce858262000641565b8655506200073e565b601f198416620006e7866200048d565b60005b828110156200071157848901518255600182019150602085019450602081019050620006ea565b868310156200073157848901516200072d601f89168262000621565b8355505b6001600288020188555050505b505050505050565b610c5d80620007566000396000f3fe60806040526004361061009c5760003560e01c80634019388311610064578063401938831461016457806342e94c901461018f5780637284e416146101cc57806381c35cbd146101f7578063c80ec52214610222578063d7bb99ba1461024d5761009c565b806302d05d3f146100a157806306fdde03146100cc57806312b58349146100f757806329dcb0cf146101225780633ccfd60b1461014d575b600080fd5b3480156100ad57600080fd5b506100b6610257565b6040516100c391906107b3565b60405180910390f35b3480156100d857600080fd5b506100e161027b565b6040516100ee919061085e565b60405180910390f35b34801561010357600080fd5b5061010c610309565b6040516101199190610899565b60405180910390f35b34801561012e57600080fd5b50610137610311565b6040516101449190610899565b60405180910390f35b34801561015957600080fd5b50610162610317565b005b34801561017057600080fd5b5061017961053f565b6040516101869190610899565b60405180910390f35b34801561019b57600080fd5b506101b660048036038101906101b191906108e5565b610545565b6040516101c39190610899565b60405180910390f35b3480156101d857600080fd5b506101e161055d565b6040516101ee919061085e565b60405180910390f35b34801561020357600080fd5b5061020c6105eb565b6040516102199190610899565b60405180910390f35b34801561022e57600080fd5b50610237610632565b604051610244919061092d565b60405180910390f35b610255610645565b005b60008054906101000a900473ffffffffffffffffffffffffffffffffffffffff1681565b6004805461028890610977565b80601f01602080910402602001604051908101604052809291908181526020018280546102b490610977565b80156103015780601f106102d657610100808354040283529160200191610301565b820191906000526020600020905b8154815290600101906020018083116102e457829003601f168201915b505050505081565b600047905090565b60025481565b60008054906101000a900473ffffffffffffffffffffffffffffffffffffffff1673ffffffffffffffffffffffffffffffffffffffff163373ffffffffffffffffffffffffffffffffffffffff16146103a5576040517f08c379a000000000000000000000000000000000000000000000000000000000815260040161039c906109f4565b60405180910390fd5b600360009054906101000a900460ff16156103f5576040517f08c379a00000000000000000000000000000000000000000000000000000000081526004016103ec90610a60565b60405180910390fd5b6001544710158061040857506002544210155b610447576040517f08c379a000000000000000000000000000000000000000000000000000000000815260040161043e90610acc565b60405180910390fd5b6001600360006101000a81548160ff021916908315150217905550600047905060008054906101000a900473ffffffffffffffffffffffffffffffffffffffff1673ffffffffffffffffffffffffffffffffffffffff166108fc829081150290604051600060405180830381858888f193505050501580156104cd573d6000803e3d6000fd5b5060008054906101000a900473ffffffffffffffffffffffffffffffffffffffff1673ffffffffffffffffffffffffffffffffffffffff167f7084f5476618d8e60b11ef0d7d3f06914655adb8793e28ff7f018d4c76d505d5826040516105349190610899565b60405180910390a250565b60015481565b60066020528060005260406000206000915090505481565b6005805461056a90610977565b80601f016020809104026020016040519081016040528092919081815260200182805461059690610977565b80156105e35780601f106105b8576101008083540402835291602001916105e3565b820191906000526020600020905b8154815290600101906020018083116105c657829003601f168201915b505050505081565b6000600660003373ffffffffffffffffffffffffffffffffffffffff1673ffffffffffffffffffffffffffffffffffffffff16815260200190815260200160002054905090565b600360009054906101000a900460ff1681565b60003411610688576040517f08c379a000000000000000000000000000000000000000000000000000000000815260040161067f90610b38565b60405180910390fd5b60025442106106cc576040517f08c379a00000000000000000000000000000000000000000000000000000000081526004016106c390610ba4565b60405180910390fd5b34600660003373ffffffffffffffffffffffffffffffffffffffff1673ffffffffffffffffffffffffffffffffffffffff168152602001908152602001600020600082825461071b9190610bf3565b925050819055503373ffffffffffffffffffffffffffffffffffffffff167f62722348256371b5147820d6cad90c40fd2da1ccee18c3ed52c0bca5a61dbbab346040516107689190610899565b60405180910390a2565b600073ffffffffffffffffffffffffffffffffffffffff82169050919050565b600061079d82610772565b9050919050565b6107ad81610792565b82525050565b60006020820190506107c860008301846107a4565b92915050565b600081519050919050565b600082825260208201905092915050565b60005b838110156108085780820151818401526020810190506107ed565b60008484015250505050565b6000601f19601f8301169050919050565b6000610830826107ce565b61083a81856107d9565b935061084a8185602086016107ea565b61085381610814565b840191505092915050565b600060208201905081810360008301526108788184610825565b905092915050565b6000819050919050565b61089381610880565b82525050565b60006020820190506108ae600083018461088a565b92915050565b600080fd5b6108c281610792565b81146108cd57600080fd5b50565b6000813590506108df816108b9565b92915050565b6000602082840312156108fb576108fa6108b4565b5b6000610909848285016108d0565b91505092915050565b60008115159050919050565b61092781610912565b82525050565b6000602082019050610942600083018461091e565b92915050565b7f4e487b7100000000000000000000000000000000000000000000000000000000600052602260045260246000fd5b6000600282049050600182168061098f57607f821691505b6020821081036109a2576109a1610948565b5b50919050565b7f4f6e6c792063726561746f722063616e20776974686472617700000000000000600082015250565b60006109de6019836107d9565b91506109e9826109a8565b602082019050919050565b60006020820190508181036000830152610a0d816109d1565b9050919050565b7f416c72656164792077697468647261776e000000000000000000000000000000600082015250565b6000610a4a6011836107d9565b9150610a5582610a14565b602082019050919050565b60006020820190508181036000830152610a7981610a3d565b9050919050565b7f43616e6e6f742077697468647261772079657400000000000000000000000000600082015250565b6000610ab66013836107d9565b9150610ac182610a80565b602082019050919050565b60006020820190508181036000830152610ae581610aa9565b9050919050565b7f4d7573742073656e6420736f6d65204554480000000000000000000000000000600082015250565b6000610b226012836107d9565b9150610b2d82610aec565b602082019050919050565b60006020820190508181036000830152610b5181610b15565b9050919050565b7f506f6f6c20686173206578706972656400000000000000000000000000000000600082015250565b6000610b8e6010836107d9565b9150610b9982610b58565b602082019050919050565b60006020820190508181036000830152610bbd81610b81565b9050919050565b7f4e487b7100000000000000000000000000000000000000000000000000000000600052601160045260246000fd5b6000610bfe82610880565b9150610c0983610880565b9250828201905080821115610c2157610c20610bc4565b5b9291505056fea2646970667358221220d73f479c804a59bd04f4caaccac601f8bf34b3f0af196deb39d8e0a1da60c63264736f6c63430008140033",
  "linkReferences": {},
  "deployedLinkReferences": {}
}