{
  "_format": "hh-sol-artifact-1",
  "contractName": "TokenizedBallot",
  "sourceName": "contracts/TokenizedBallot.sol",
  "abi": [
    {
      "inputs": [
        {
          "internalType": "bytes32[]",
          "name": "proposalNames",
          "type": "bytes32[]"
        },
        {
          "internalType": "address",
          "name": "tokenAddress",
          "type": "address"
        }
      ],
      "stateMutability": "nonpayable",
      "type": "constructor"
    },
    {
      "inputs": [
        {
          "internalType": "uint256",
          "name": "index",
          "type": "uint256"
        }
      ],
      "name": "getProposalName",
      "outputs": [
        {
          "internalType": "bytes32",
          "name": "",
          "type": "bytes32"
        }
      ],
      "stateMutability": "view",
      "type": "function"
    },
    {
      "inputs": [
        {
          "internalType": "uint256",
          "name": "index",
          "type": "uint256"
        }
      ],
      "name": "getProposalVotes",
      "outputs": [
        {
          "internalType": "uint256",
          "name": "",
          "type": "uint256"
        }
      ],
      "stateMutability": "view",
      "type": "function"
    },
    {
      "inputs": [],
      "name": "getProposalsCount",
      "outputs": [
        {
          "internalType": "uint256",
          "name": "",
          "type": "uint256"
        }
      ],
      "stateMutability": "view",
      "type": "function"
    },
    {
      "inputs": [
        {
          "internalType": "address",
          "name": "voter",
          "type": "address"
        }
      ],
      "name": "giveRightToVote",
      "outputs": [],
      "stateMutability": "nonpayable",
      "type": "function"
    },
    {
      "inputs": [
        {
          "internalType": "uint256",
          "name": "",
          "type": "uint256"
        }
      ],
      "name": "proposals",
      "outputs": [
        {
          "internalType": "bytes32",
          "name": "name",
          "type": "bytes32"
        },
        {
          "internalType": "uint256",
          "name": "voteCount",
          "type": "uint256"
        }
      ],
      "stateMutability": "view",
      "type": "function"
    },
    {
      "inputs": [
        {
          "internalType": "uint256",
          "name": "proposalIndex",
          "type": "uint256"
        },
        {
          "internalType": "uint256",
          "name": "amount",
          "type": "uint256"
        }
      ],
      "name": "vote",
      "outputs": [],
      "stateMutability": "nonpayable",
      "type": "function"
    },
    {
      "inputs": [
        {
          "internalType": "address",
          "name": "",
          "type": "address"
        }
      ],
      "name": "votePowerSpent",
      "outputs": [
        {
          "internalType": "uint256",
          "name": "",
          "type": "uint256"
        }
      ],
      "stateMutability": "view",
      "type": "function"
    },
    {
      "inputs": [],
      "name": "voteToken",
      "outputs": [
        {
          "internalType": "contract IERC20",
          "name": "",
          "type": "address"
        }
      ],
      "stateMutability": "view",
      "type": "function"
    },
    {
      "inputs": [
        {
          "internalType": "address",
          "name": "",
          "type": "address"
        }
      ],
      "name": "voters",
      "outputs": [
        {
          "internalType": "uint256",
          "name": "weight",
          "type": "uint256"
        },
        {
          "internalType": "bool",
          "name": "voted",
          "type": "bool"
        },
        {
          "internalType": "address",
          "name": "delegate",
          "type": "address"
        },
        {
          "internalType": "uint256",
          "name": "vote",
          "type": "uint256"
        }
      ],
      "stateMutability": "view",
      "type": "function"
    }
  ],
  "bytecode": "0x608060405234801561001057600080fd5b506040516107e43803806107e483398101604081905261002f916100fa565b600280546001600160a01b0319166001600160a01b03831617905560005b82518110156100c05760016040518060400160405280858481518110610075576100756101c9565b602090810291909101810151825260009181018290528354600181810186559483529181902083516002909302019182559190910151910155806100b8816101df565b91505061004d565b505050610206565b634e487b7160e01b600052604160045260246000fd5b80516001600160a01b03811681146100f557600080fd5b919050565b6000806040838503121561010d57600080fd5b82516001600160401b038082111561012457600080fd5b818501915085601f83011261013857600080fd5b815160208282111561014c5761014c6100c8565b8160051b604051601f19603f83011681018181108682111715610171576101716100c8565b60405292835281830193508481018201928984111561018f57600080fd5b948201945b838610156101ad57855185529482019493820193610194565b96506101bc90508782016100de565b9450505050509250929050565b634e487b7160e01b600052603260045260246000fd5b6000600182016101ff57634e487b7160e01b600052601160045260246000fd5b5060010190565b6105cf806102156000396000f3fe608060405234801561001057600080fd5b50600436106100935760003560e01c806398e527d31161006657806398e527d3146101245780639e7b8d611461012c5780639e90d0d914610141578063a3ec138d14610161578063b384abef146101d357600080fd5b8063013cf08b14610098578063160d66ae146100c5578063429b92bf146100f057806347c6614014610111575b600080fd5b6100ab6100a63660046104d8565b6101e6565b604080519283526020830191909152015b60405180910390f35b6002546100d8906001600160a01b031681565b6040516001600160a01b0390911681526020016100bc565b6101036100fe3660046104d8565b610214565b6040519081526020016100bc565b61010361011f3660046104d8565b610242565b600154610103565b61013f61013a3660046104f1565b610270565b005b61010361014f3660046104f1565b60036020526000908152604090205481565b6101a461016f3660046104f1565b600060208190529081526040902080546001820154600290920154909160ff8116916101009091046001600160a01b03169084565b6040516100bc949392919093845291151560208401526001600160a01b03166040830152606082015260800190565b61013f6101e1366004610521565b6103b8565b600181815481106101f657600080fd5b60009182526020909120600290910201805460019091015490915082565b60006001828154811061022957610229610543565b9060005260206000209060020201600001549050919050565b60006001828154811061025757610257610543565b9060005260206000209060020201600101549050919050565b6001600160a01b038116600090815260208190526040902054156102db5760405162461bcd60e51b815260206004820152601960248201527f416c72656164792068617320726967687420746f20766f74650000000000000060448201526064015b60405180910390fd5b6002546040516370a0823160e01b81526001600160a01b03838116600483015260009216906370a0823190602401602060405180830381865afa158015610326573d6000803e3d6000fd5b505050506040513d601f19601f8201168201806040525081019061034a9190610559565b90506000811161039c5760405162461bcd60e51b815260206004820152601f60248201527f4e6f20746f6b656e7320746f2061737369676e20766f7465207765696768740060448201526064016102d2565b6001600160a01b03909116600090815260208190526040902055565b336000908152602081905260409020600181015460ff161561040c5760405162461bcd60e51b815260206004820152600d60248201526c105b1c9958591e481d9bdd1959609a1b60448201526064016102d2565b805482111561045d5760405162461bcd60e51b815260206004820152601860248201527f496e73756666696369656e7420766f746520776569676874000000000000000060448201526064016102d2565b6001818101805460ff19169091179055600281018390553360009081526003602052604081208054849290610493908490610572565b9250508190555081600184815481106104ae576104ae610543565b906000526020600020906002020160010160008282546104ce9190610572565b9091555050505050565b6000602082840312156104ea57600080fd5b5035919050565b60006020828403121561050357600080fd5b81356001600160a01b038116811461051a57600080fd5b9392505050565b6000806040838503121561053457600080fd5b50508035926020909101359150565b634e487b7160e01b600052603260045260246000fd5b60006020828403121561056b57600080fd5b5051919050565b8082018082111561059357634e487b7160e01b600052601160045260246000fd5b9291505056fea2646970667358221220b611086df66b06f3745d21a0a2c44fc9366e6c02370498ebdb11d968e20008eb64736f6c63430008140033",
  "linkReferences": {},
  "deployedLinkReferences": {}
}